{
  "_format": "hh3-artifact-1",
  "contractName": "Attacker",
  "sourceName": "contracts/Attacker.sol",
  "abi": [
    {
      "inputs": [
        {
          "internalType": "address",
          "name": "_marketplaceAddress",
          "type": "address"
        }
      ],
      "stateMutability": "nonpayable",
      "type": "constructor"
    },
    {
      "inputs": [],
      "name": "attack",
      "outputs": [],
      "stateMutability": "payable",
      "type": "function"
    },
    {
      "inputs": [],
      "name": "getAttackerBalance",
      "outputs": [
        {
          "internalType": "uint256",
          "name": "",
          "type": "uint256"
        }
      ],
      "stateMutability": "view",
      "type": "function"
    },
    {
      "inputs": [],
      "name": "marketplace",
      "outputs": [
        {
          "internalType": "contract SecureMarketplace",
          "name": "",
          "type": "address"
        }
      ],
      "stateMutability": "view",
      "type": "function"
    },
    {
      "stateMutability": "payable",
      "type": "receive"
    }
  ],
  "bytecode": "0x608060405234801561000f575f5ffd5b5060405161057e38038061057e833981810160405281019061003191906100d4565b805f5f6101000a81548173ffffffffffffffffffffffffffffffffffffffff021916908373ffffffffffffffffffffffffffffffffffffffff160217905550506100ff565b5f5ffd5b5f73ffffffffffffffffffffffffffffffffffffffff82169050919050565b5f6100a38261007a565b9050919050565b6100b381610099565b81146100bd575f5ffd5b50565b5f815190506100ce816100aa565b92915050565b5f602082840312156100e9576100e8610076565b5b5f6100f6848285016100c0565b91505092915050565b6104728061010c5f395ff3fe608060405260043610610037575f3560e01c80639e5faafc14610104578063a8e30e2c1461010e578063abc8c7af1461013857610100565b3661010057670de0b6b3a76400005f5f9054906101000a900473ffffffffffffffffffffffffffffffffffffffff1673ffffffffffffffffffffffffffffffffffffffff1631106100fe575f5f9054906101000a900473ffffffffffffffffffffffffffffffffffffffff1673ffffffffffffffffffffffffffffffffffffffff16633ccfd60b6040518163ffffffff1660e01b81526004015f604051808303815f87803b1580156100e7575f5ffd5b505af11580156100f9573d5f5f3e3d5ffd5b505050505b005b5f5ffd5b61010c610162565b005b348015610119575f5ffd5b506101226102af565b60405161012f91906102f2565b60405180910390f35b348015610143575f5ffd5b5061014c6102b6565b6040516101599190610385565b60405180910390f35b670de0b6b3a76400003410156101ad576040517f08c379a00000000000000000000000000000000000000000000000000000000081526004016101a49061041e565b60405180910390fd5b5f5f9054906101000a900473ffffffffffffffffffffffffffffffffffffffff1673ffffffffffffffffffffffffffffffffffffffff1663d0e30db0670de0b6b3a76400006040518263ffffffff1660e01b81526004015f604051808303818588803b15801561021b575f5ffd5b505af115801561022d573d5f5f3e3d5ffd5b50505050505f5f9054906101000a900473ffffffffffffffffffffffffffffffffffffffff1673ffffffffffffffffffffffffffffffffffffffff16633ccfd60b6040518163ffffffff1660e01b81526004015f604051808303815f87803b158015610297575f5ffd5b505af11580156102a9573d5f5f3e3d5ffd5b50505050565b5f47905090565b5f5f9054906101000a900473ffffffffffffffffffffffffffffffffffffffff1681565b5f819050919050565b6102ec816102da565b82525050565b5f6020820190506103055f8301846102e3565b92915050565b5f73ffffffffffffffffffffffffffffffffffffffff82169050919050565b5f819050919050565b5f61034d6103486103438461030b565b61032a565b61030b565b9050919050565b5f61035e82610333565b9050919050565b5f61036f82610354565b9050919050565b61037f81610365565b82525050565b5f6020820190506103985f830184610376565b92915050565b5f82825260208201905092915050565b7fd09dd183d0b6d0b5d0bd203120d18dd184d0b8d18020d0b4d0bbd18f20d181d15f8201527f82d0b0d180d182d0b00000000000000000000000000000000000000000000000602082015250565b5f61040860298361039e565b9150610413826103ae565b604082019050919050565b5f6020820190508181035f830152610435816103fc565b905091905056fea2646970667358221220a7ba90a15641aab6d18818fd57e6f39d29ea80b0e4b2e2faa8bc82ff1971fd3564736f6c634300081c0033",
  "linkReferences": {},
  "deployedLinkReferences": {},
  "immutableReferences": {},
  "inputSourceName": "project/contracts/Attacker.sol",
  "buildInfoId": "solc-0_8_28-1cb70ba5a5f9300d02441753ca241150de5579ee"
}