{
  "_format": "hh3-artifact-1",
  "contractName": "Attacker",
  "sourceName": "contracts/Vulnerable.sol",
  "abi": [
    {
      "inputs": [
        {
          "internalType": "address",
          "name": "_market",
          "type": "address"
        }
      ],
      "stateMutability": "nonpayable",
      "type": "constructor"
    },
    {
      "anonymous": false,
      "inputs": [
        {
          "indexed": true,
          "internalType": "address",
          "name": "target",
          "type": "address"
        },
        {
          "indexed": false,
          "internalType": "uint256",
          "name": "amount",
          "type": "uint256"
        }
      ],
      "name": "AttackStarted",
      "type": "event"
    },
    {
      "anonymous": false,
      "inputs": [
        {
          "indexed": true,
          "internalType": "uint256",
          "name": "count",
          "type": "uint256"
        },
        {
          "indexed": false,
          "internalType": "uint256",
          "name": "targetBalance",
          "type": "uint256"
        }
      ],
      "name": "Reentered",
      "type": "event"
    },
    {
      "inputs": [],
      "name": "attack",
      "outputs": [],
      "stateMutability": "payable",
      "type": "function"
    },
    {
      "inputs": [],
      "name": "market",
      "outputs": [
        {
          "internalType": "contract VulnerableMarket",
          "name": "",
          "type": "address"
        }
      ],
      "stateMutability": "view",
      "type": "function"
    },
    {
      "inputs": [],
      "name": "reentryCount",
      "outputs": [
        {
          "internalType": "uint256",
          "name": "",
          "type": "uint256"
        }
      ],
      "stateMutability": "view",
      "type": "function"
    },
    {
      "stateMutability": "payable",
      "type": "receive"
    }
  ],
  "bytecode": "0x608060405234801561000f575f5ffd5b506040516105f23803806105f2833981810160405281019061003191906100d4565b805f5f6101000a81548173ffffffffffffffffffffffffffffffffffffffff021916908373ffffffffffffffffffffffffffffffffffffffff160217905550506100ff565b5f5ffd5b5f73ffffffffffffffffffffffffffffffffffffffff82169050919050565b5f6100a38261007a565b9050919050565b6100b381610099565b81146100bd575f5ffd5b50565b5f815190506100ce816100aa565b92915050565b5f602082840312156100e9576100e8610076565b5b5f6100f6848285016100c0565b91505092915050565b6104e68061010c5f395ff3fe608060405260043610610037575f3560e01c806353b381691461018d57806380f55605146101b75780639e5faafc146101e157610189565b3661018957670de0b6b3a76400005f5f9054906101000a900473ffffffffffffffffffffffffffffffffffffffff1673ffffffffffffffffffffffffffffffffffffffff163110610187576001805f82825461009391906103c2565b925050819055506001547f0b8e59e64518371a96f6e471520e4353d76709453d198e87a22fef9f6e0a2d3f5f5f9054906101000a900473ffffffffffffffffffffffffffffffffffffffff1673ffffffffffffffffffffffffffffffffffffffff16316040516101039190610404565b60405180910390a25f5f9054906101000a900473ffffffffffffffffffffffffffffffffffffffff1673ffffffffffffffffffffffffffffffffffffffff16633ccfd60b6040518163ffffffff1660e01b81526004015f604051808303815f87803b158015610170575f5ffd5b505af1158015610182573d5f5f3e3d5ffd5b505050505b005b5f5ffd5b348015610198575f5ffd5b506101a16101eb565b6040516101ae9190610404565b60405180910390f35b3480156101c2575f5ffd5b506101cb6101f1565b6040516101d89190610497565b60405180910390f35b6101e9610215565b005b60015481565b5f5f9054906101000a900473ffffffffffffffffffffffffffffffffffffffff1681565b5f6001819055505f5f9054906101000a900473ffffffffffffffffffffffffffffffffffffffff1673ffffffffffffffffffffffffffffffffffffffff167f27d8eb28116e9f2ae2b43499215b62c15230b4872bf3d2ffcff80441121c1712346040516102829190610404565b60405180910390a25f5f9054906101000a900473ffffffffffffffffffffffffffffffffffffffff1673ffffffffffffffffffffffffffffffffffffffff1663d0e30db0670de0b6b3a76400006040518263ffffffff1660e01b81526004015f604051808303818588803b1580156102f8575f5ffd5b505af115801561030a573d5f5f3e3d5ffd5b50505050505f5f9054906101000a900473ffffffffffffffffffffffffffffffffffffffff1673ffffffffffffffffffffffffffffffffffffffff16633ccfd60b6040518163ffffffff1660e01b81526004015f604051808303815f87803b158015610374575f5ffd5b505af1158015610386573d5f5f3e3d5ffd5b50505050565b5f819050919050565b7f4e487b71000000000000000000000000000000000000000000000000000000005f52601160045260245ffd5b5f6103cc8261038c565b91506103d78361038c565b92508282019050808211156103ef576103ee610395565b5b92915050565b6103fe8161038c565b82525050565b5f6020820190506104175f8301846103f5565b92915050565b5f73ffffffffffffffffffffffffffffffffffffffff82169050919050565b5f819050919050565b5f61045f61045a6104558461041d565b61043c565b61041d565b9050919050565b5f61047082610445565b9050919050565b5f61048182610466565b9050919050565b61049181610477565b82525050565b5f6020820190506104aa5f830184610488565b9291505056fea264697066735822122080bce0c6590b9097e524d03da63fedc10a1cc12f10cc557abdd7a8f7371c945664736f6c634300081c0033",
  "linkReferences": {},
  "deployedLinkReferences": {},
  "immutableReferences": {},
  "inputSourceName": "project/contracts/Vulnerable.sol",
  "buildInfoId": "solc-0_8_28-d66557ea3d884ae34ed9c80c293af34fd28ce230"
}