{
  "_format": "hh3-artifact-1",
  "contractName": "SecureMarketplace",
  "sourceName": "contracts/SecureMarketplace.sol",
  "abi": [
    {
      "inputs": [],
      "stateMutability": "nonpayable",
      "type": "constructor"
    },
    {
      "inputs": [],
      "name": "admin",
      "outputs": [
        {
          "internalType": "address",
          "name": "",
          "type": "address"
        }
      ],
      "stateMutability": "view",
      "type": "function"
    },
    {
      "inputs": [
        {
          "internalType": "address",
          "name": "",
          "type": "address"
        }
      ],
      "name": "balances",
      "outputs": [
        {
          "internalType": "uint256",
          "name": "",
          "type": "uint256"
        }
      ],
      "stateMutability": "view",
      "type": "function"
    },
    {
      "inputs": [],
      "name": "deposit",
      "outputs": [],
      "stateMutability": "payable",
      "type": "function"
    },
    {
      "inputs": [],
      "name": "getMarketplaceBalance",
      "outputs": [
        {
          "internalType": "uint256",
          "name": "",
          "type": "uint256"
        }
      ],
      "stateMutability": "view",
      "type": "function"
    },
    {
      "inputs": [],
      "name": "paused",
      "outputs": [
        {
          "internalType": "bool",
          "name": "",
          "type": "bool"
        }
      ],
      "stateMutability": "view",
      "type": "function"
    },
    {
      "inputs": [],
      "name": "togglePause",
      "outputs": [],
      "stateMutability": "nonpayable",
      "type": "function"
    },
    {
      "inputs": [],
      "name": "withdraw",
      "outputs": [],
      "stateMutability": "nonpayable",
      "type": "function"
    }
  ],
  "bytecode": "0x60806040525f60025f6101000a81548160ff0219169083151502179055503480156027575f5ffd5b506001808190555033600260016101000a81548173ffffffffffffffffffffffffffffffffffffffff021916908373ffffffffffffffffffffffffffffffffffffffff160217905550610a338061007d5f395ff3fe60806040526004361061006f575f3560e01c8063c4ae31681161004d578063c4ae3168146100ef578063d0e30db014610105578063e9c988aa1461010f578063f851a440146101395761006f565b806327e235e3146100735780633ccfd60b146100af5780635c975abb146100c5575b5f5ffd5b34801561007e575f5ffd5b5061009960048036038101906100949190610583565b610163565b6040516100a691906105c6565b60405180910390f35b3480156100ba575f5ffd5b506100c3610177565b005b3480156100d0575f5ffd5b506100d9610389565b6040516100e691906105f9565b60405180910390f35b3480156100fa575f5ffd5b5061010361039b565b005b61010d610455565b005b34801561011a575f5ffd5b506101236104f8565b60405161013091906105c6565b60405180910390f35b348015610144575f5ffd5b5061014d6104ff565b60405161015a9190610621565b60405180910390f35b5f602052805f5260405f205f915090505481565b6002600154036101bc576040517f08c379a00000000000000000000000000000000000000000000000000000000081526004016101b3906106e0565b60405180910390fd5b600260018190555060025f9054906101000a900460ff1615610213576040517f08c379a000000000000000000000000000000000000000000000000000000000815260040161020a90610794565b60405180910390fd5b5f5f5f3373ffffffffffffffffffffffffffffffffffffffff1673ffffffffffffffffffffffffffffffffffffffff1681526020019081526020015f205490505f8111610295576040517f08c379a000000000000000000000000000000000000000000000000000000000815260040161028c90610822565b60405180910390fd5b5f5f5f3373ffffffffffffffffffffffffffffffffffffffff1673ffffffffffffffffffffffffffffffffffffffff1681526020019081526020015f20819055505f3373ffffffffffffffffffffffffffffffffffffffff16826040516102fb9061086d565b5f6040518083038185875af1925050503d805f8114610335576040519150601f19603f3d011682016040523d82523d5f602084013e61033a565b606091505b505090508061037e576040517f08c379a0000000000000000000000000000000000000000000000000000000008152600401610375906108cb565b60405180910390fd5b505060018081905550565b60025f9054906101000a900460ff1681565b600260019054906101000a900473ffffffffffffffffffffffffffffffffffffffff1673ffffffffffffffffffffffffffffffffffffffff163373ffffffffffffffffffffffffffffffffffffffff161461042b576040517f08c379a00000000000000000000000000000000000000000000000000000000081526004016104229061097f565b60405180910390fd5b60025f9054906101000a900460ff161560025f6101000a81548160ff021916908315150217905550565b60025f9054906101000a900460ff16156104a4576040517f08c379a000000000000000000000000000000000000000000000000000000000815260040161049b90610794565b60405180910390fd5b345f5f3373ffffffffffffffffffffffffffffffffffffffff1673ffffffffffffffffffffffffffffffffffffffff1681526020019081526020015f205f8282546104ef91906109ca565b92505081905550565b5f47905090565b600260019054906101000a900473ffffffffffffffffffffffffffffffffffffffff1681565b5f5ffd5b5f73ffffffffffffffffffffffffffffffffffffffff82169050919050565b5f61055282610529565b9050919050565b61056281610548565b811461056c575f5ffd5b50565b5f8135905061057d81610559565b92915050565b5f6020828403121561059857610597610525565b5b5f6105a58482850161056f565b91505092915050565b5f819050919050565b6105c0816105ae565b82525050565b5f6020820190506105d95f8301846105b7565b92915050565b5f8115159050919050565b6105f3816105df565b82525050565b5f60208201905061060c5f8301846105ea565b92915050565b61061b81610548565b82525050565b5f6020820190506106345f830184610612565b92915050565b5f82825260208201905092915050565b7f5265656e7472616e637947756172643a20d0bed0b1d0bdd0b0d180d183d0b6d05f8201527fb5d0bdd0b020d0b0d182d0b0d0bad0b020d0bfd0bed0b2d182d0bed180d0bdd060208201527fbed0b3d0be20d0b2d185d0bed0b4d0b021000000000000000000000000000000604082015250565b5f6106ca60518361063a565b91506106d58261064a565b606082019050919050565b5f6020820190508181035f8301526106f7816106be565b9050919050565b7f5061757361626c653a20d09ad0bed0bdd182d180d0b0d0bad18220d0bed181d15f8201527f82d0b0d0bdd0bed0b2d0bbd0b5d0bd20d0b0d0b4d0bcd0b8d0bdd0bed0bc20d060208201527fb8d0b72dd0b7d0b020d183d0b3d180d0bed0b7d18b0000000000000000000000604082015250565b5f61077e60558361063a565b9150610789826106fe565b606082019050919050565b5f6020820190508181035f8301526107ab81610772565b9050919050565b7fd09dd0b5d0b4d0bed181d182d0b0d182d0bed187d0bdd0be20d181d180d0b5d05f8201527fb4d181d182d0b200000000000000000000000000000000000000000000000000602082015250565b5f61080c60278361063a565b9150610817826107b2565b604082019050919050565b5f6020820190508181035f83015261083981610800565b9050919050565b5f81905092915050565b50565b5f6108585f83610840565b91506108638261084a565b5f82019050919050565b5f6108778261084d565b9150819050919050565b7fd09ed188d0b8d0b1d0bad0b020d0bfd0b5d180d0b5d0b2d0bed0b4d0b00000005f82015250565b5f6108b5601d8361063a565b91506108c082610881565b602082019050919050565b5f6020820190508181035f8301526108e2816108a9565b9050919050565b7fd0a2d0bed0bbd18cd0bad0be20d0b0d0b4d0bcd0b8d0bd20d0bcd0bed0b6d0b55f8201527fd18220d0bdd0b0d0b6d0b0d182d18c20d180d183d0b1d0b8d0bbd18cd0bdd0b860208201527fd0ba000000000000000000000000000000000000000000000000000000000000604082015250565b5f61096960428361063a565b9150610974826108e9565b606082019050919050565b5f6020820190508181035f8301526109968161095d565b9050919050565b7f4e487b71000000000000000000000000000000000000000000000000000000005f52601160045260245ffd5b5f6109d4826105ae565b91506109df836105ae565b92508282019050808211156109f7576109f661099d565b5b9291505056fea2646970667358221220cd3f24df120aa4f823ef5cef4c603022ac8dbd4c066ca4d47fc924c768f5f86964736f6c634300081c0033",
  "linkReferences": {},
  "deployedLinkReferences": {},
  "immutableReferences": {},
  "inputSourceName": "project/contracts/SecureMarketplace.sol",
  "buildInfoId": "solc-0_8_28-1cb70ba5a5f9300d02441753ca241150de5579ee"
}