{
  "_format": "hh-sol-artifact-1",
  "contractName": "SecureMarketplace",
  "sourceName": "contracts/SecureMarketplace.sol",
  "abi": [
    {
      "inputs": [],
      "stateMutability": "nonpayable",
      "type": "constructor"
    },
    {
      "inputs": [],
      "name": "admin",
      "outputs": [
        {
          "internalType": "address",
          "name": "",
          "type": "address"
        }
      ],
      "stateMutability": "view",
      "type": "function"
    },
    {
      "inputs": [
        {
          "internalType": "address",
          "name": "",
          "type": "address"
        }
      ],
      "name": "balances",
      "outputs": [
        {
          "internalType": "uint256",
          "name": "",
          "type": "uint256"
        }
      ],
      "stateMutability": "view",
      "type": "function"
    },
    {
      "inputs": [],
      "name": "deposit",
      "outputs": [],
      "stateMutability": "payable",
      "type": "function"
    },
    {
      "inputs": [],
      "name": "getMarketplaceBalance",
      "outputs": [
        {
          "internalType": "uint256",
          "name": "",
          "type": "uint256"
        }
      ],
      "stateMutability": "view",
      "type": "function"
    },
    {
      "inputs": [],
      "name": "paused",
      "outputs": [
        {
          "internalType": "bool",
          "name": "",
          "type": "bool"
        }
      ],
      "stateMutability": "view",
      "type": "function"
    },
    {
      "inputs": [],
      "name": "togglePause",
      "outputs": [],
      "stateMutability": "nonpayable",
      "type": "function"
    },
    {
      "inputs": [],
      "name": "withdraw",
      "outputs": [],
      "stateMutability": "nonpayable",
      "type": "function"
    }
  ],
  "bytecode": "0x60806040526000600260006101000a81548160ff021916908315150217905550348015602a57600080fd5b506001808190555033600260016101000a81548173ffffffffffffffffffffffffffffffffffffffff021916908373ffffffffffffffffffffffffffffffffffffffff160217905550610a7f806100826000396000f3fe6080604052600436106100705760003560e01c8063c4ae31681161004e578063c4ae3168146100f4578063d0e30db01461010b578063e9c988aa14610115578063f851a4401461014057610070565b806327e235e3146100755780633ccfd60b146100b25780635c975abb146100c9575b600080fd5b34801561008157600080fd5b5061009c600480360381019061009791906105a8565b61016b565b6040516100a991906105ee565b60405180910390f35b3480156100be57600080fd5b506100c7610183565b005b3480156100d557600080fd5b506100de6103a1565b6040516100eb9190610624565b60405180910390f35b34801561010057600080fd5b506101096103b4565b005b610113610470565b005b34801561012157600080fd5b5061012a610517565b60405161013791906105ee565b60405180910390f35b34801561014c57600080fd5b5061015561051f565b604051610162919061064e565b60405180910390f35b60006020528060005260406000206000915090505481565b6002600154036101c8576040517f08c379a00000000000000000000000000000000000000000000000000000000081526004016101bf90610712565b60405180910390fd5b6002600181905550600260009054906101000a900460ff1615610220576040517f08c379a0000000000000000000000000000000000000000000000000000000008152600401610217906107ca565b60405180910390fd5b60008060003373ffffffffffffffffffffffffffffffffffffffff1673ffffffffffffffffffffffffffffffffffffffff168152602001908152602001600020549050600081116102a6576040517f08c379a000000000000000000000000000000000000000000000000000000000815260040161029d9061085c565b60405180910390fd5b60008060003373ffffffffffffffffffffffffffffffffffffffff1673ffffffffffffffffffffffffffffffffffffffff1681526020019081526020016000208190555060003373ffffffffffffffffffffffffffffffffffffffff1682604051610310906108ad565b60006040518083038185875af1925050503d806000811461034d576040519150601f19603f3d011682016040523d82523d6000602084013e610352565b606091505b5050905080610396576040517f08c379a000000000000000000000000000000000000000000000000000000000815260040161038d9061090e565b60405180910390fd5b505060018081905550565b600260009054906101000a900460ff1681565b600260019054906101000a900473ffffffffffffffffffffffffffffffffffffffff1673ffffffffffffffffffffffffffffffffffffffff163373ffffffffffffffffffffffffffffffffffffffff1614610444576040517f08c379a000000000000000000000000000000000000000000000000000000000815260040161043b906109c6565b60405180910390fd5b600260009054906101000a900460ff1615600260006101000a81548160ff021916908315150217905550565b600260009054906101000a900460ff16156104c0576040517f08c379a00000000000000000000000000000000000000000000000000000000081526004016104b7906107ca565b60405180910390fd5b346000803373ffffffffffffffffffffffffffffffffffffffff1673ffffffffffffffffffffffffffffffffffffffff168152602001908152602001600020600082825461050e9190610a15565b92505081905550565b600047905090565b600260019054906101000a900473ffffffffffffffffffffffffffffffffffffffff1681565b600080fd5b600073ffffffffffffffffffffffffffffffffffffffff82169050919050565b60006105758261054a565b9050919050565b6105858161056a565b811461059057600080fd5b50565b6000813590506105a28161057c565b92915050565b6000602082840312156105be576105bd610545565b5b60006105cc84828501610593565b91505092915050565b6000819050919050565b6105e8816105d5565b82525050565b600060208201905061060360008301846105df565b92915050565b60008115159050919050565b61061e81610609565b82525050565b60006020820190506106396000830184610615565b92915050565b6106488161056a565b82525050565b6000602082019050610663600083018461063f565b92915050565b600082825260208201905092915050565b7f5265656e7472616e637947756172643a20d0bed0b1d0bdd0b0d180d183d0b6d060008201527fb5d0bdd0b020d0b0d182d0b0d0bad0b020d0bfd0bed0b2d182d0bed180d0bdd060208201527fbed0b3d0be20d0b2d185d0bed0b4d0b021000000000000000000000000000000604082015250565b60006106fc605183610669565b91506107078261067a565b606082019050919050565b6000602082019050818103600083015261072b816106ef565b9050919050565b7f5061757361626c653a20d09ad0bed0bdd182d180d0b0d0bad18220d0bed181d160008201527f82d0b0d0bdd0bed0b2d0bbd0b5d0bd20d0b0d0b4d0bcd0b8d0bdd0bed0bc20d060208201527fb8d0b72dd0b7d0b020d183d0b3d180d0bed0b7d18b0000000000000000000000604082015250565b60006107b4605583610669565b91506107bf82610732565b606082019050919050565b600060208201905081810360008301526107e3816107a7565b9050919050565b7fd09dd0b5d0b4d0bed181d182d0b0d182d0bed187d0bdd0be20d181d180d0b5d060008201527fb4d181d182d0b200000000000000000000000000000000000000000000000000602082015250565b6000610846602783610669565b9150610851826107ea565b604082019050919050565b6000602082019050818103600083015261087581610839565b9050919050565b600081905092915050565b50565b600061089760008361087c565b91506108a282610887565b600082019050919050565b60006108b88261088a565b9150819050919050565b7fd09ed188d0b8d0b1d0bad0b020d0bfd0b5d180d0b5d0b2d0bed0b4d0b0000000600082015250565b60006108f8601d83610669565b9150610903826108c2565b602082019050919050565b60006020820190508181036000830152610927816108eb565b9050919050565b7fd0a2d0bed0bbd18cd0bad0be20d0b0d0b4d0bcd0b8d0bd20d0bcd0bed0b6d0b560008201527fd18220d0bdd0b0d0b6d0b0d182d18c20d180d183d0b1d0b8d0bbd18cd0bdd0b860208201527fd0ba000000000000000000000000000000000000000000000000000000000000604082015250565b60006109b0604283610669565b91506109bb8261092e565b606082019050919050565b600060208201905081810360008301526109df816109a3565b9050919050565b7f4e487b7100000000000000000000000000000000000000000000000000000000600052601160045260246000fd5b6000610a20826105d5565b9150610a2b836105d5565b9250828201905080821115610a4357610a426109e6565b5b9291505056fea26469706673582212206bd8afd34addfd92cea462eaa306beb4b45435f044217f4021a57511ca99e1f264736f6c634300081c0033",
  "linkReferences": {},
  "deployedLinkReferences": {}
}